:100000000C9434000C9451000C9451000C94510049
:100010000C9451000C9451000C9451000C9451001C
:100020000C9451000C9451000C9451000C94060453
:100030000C9451000C9451000C9451000C945100FC
:100040000C9451000C9451000C9460040C945100D9
:100050000C9451000C9451000C9451000C945100DC
:100060000C9451000C94510011241FBECFEFD8E026
:10007000DEBFCDBF12E0A0E0B1E0EAE8F5E102C0EA
:1000800005900D92A836B107D9F723E0A8E6B2E0B3
:1000900001C01D92A33FB207E1F70E94AE040C9489
:1000A000C30A0C9400009C012C5F3F4F811544E073
:1000B000940778F4F999FECF92BD81BDF89A40B5C6
:1000C000FB014193BF0101968217930779F780E006
:1000D000089582E008951092E3031092E203EDE7A1
:1000E000F3E081EE93E011928E179F07E1F70895F8
:1000F0008F929F92AF92BF92CF92DF92EF92FF9238
:10010000CF93DF93EC01F894C0906F03D09070030D
:10011000E0907103F090720378948CE3882E912C18
:10012000A12CB12CC701B601A50194010E94920730
:100130006E83CA01B901A50194010E9492076D83E3
:10014000C701B60120E13EE040E050E00E94920786
:10015000CA01B90128E130E040E050E00E94920776
:100160006C83C701B60120E831E541E050E00E9410
:100170009207CA01B9016C5F7F4F8F4F9F4F27E0F5
:1001800030E040E050E00E9492076F83DF91CF9112
:10019000FF90EF90DF90CF90BF90AF909F908F90A7
:1001A0000895F89480916E03882341F020916C03A8
:1001B00030916D0381E0232B09F480E07894089559
:1001C0009C018830910580F0AC01485051094630BF
:1001D000510510F4885008952E503109263031050C
:1001E00010F48E5008958FEF08958830910558F0DF
:1001F0009C01285031092630310538F00E970697BA
:1002000030F08FEF089582E0089580E0089581E056
:1002100008950F931F93CF93DF938C01D62F0E94E5
:10022000F500C82FC8010E94E000DD2359F1C1305C
:1002300099F038F0C230D9F0DF91CF911F910F9132
:10024000089595B121E030E001C0220F8A95EAF7C8
:10025000892F822B85B9F0CF98B121E030E001C021
:10026000220F8A95EAF7892F822B88B9E5CF9BB1B7
:1002700021E030E001C0220F8A95EAF7892F822B16
:100280008BB9DACFC130E9F078F0C230A9F64BB1C2
:1002900021E030E0B90102C0660F771F8A95E2F7CE
:1002A000CB0180958423ECCF45B121E030E0B9014A
:1002B00002C0660F771F8A95E2F7CB0180958423F1
:1002C000C9CF48B121E030E0B90102C0660F771F05
:1002D0008A95E2F7CB0180958423C7CF0F931F93B4
:1002E000CF93DF938C01D62F0E94F500C82FC80151
:1002F0000E94E000DD2359F1C13099F038F0C2309E
:10030000D9F0DF91CF911F910F91089594B121E021
:1003100030E001C0220F8A95EAF7892F822B84B939
:10032000F0CF97B121E030E001C0220F8A95EAF7C3
:10033000892F822B87B9E5CF9AB121E030E001C047
:10034000220F8A95EAF7892F822B8AB9DACFC1303A
:10035000E9F078F0C230A9F64AB121E030E0B90105
:1003600002C0660F771F8A95E2F7CB018095842340
:10037000ECCF44B121E030E0B90102C0660F771F35
:100380008A95E2F7CB0180958423C9CF47B121E05C
:1003900030E0B90102C0660F771F8A95E2F7CB0102
:1003A00080958423C7CFFC0101900020E9F73197A5
:1003B000E81BF90BDC019D01281B390B2E173F07A9
:1003C00044F42091C00025FFFCCF2D912093C6005E
:1003D000F2CF0895CF93DF93CDB7DEB7DA950FB69E
:1003E000F894DEBF0FBECDBFAE014B5F5E4FFA018A
:1003F00061917191AF01CE0101960E94F107CE018A
:1004000001960E94D301D3950FB6F894DEBF0FBEBC
:10041000CDBFDF91CF910895CF93DF93CDB7DEB7F6
:1004200028970FB6F894DEBF0FBECDBFCE01019660
:100430000E9478008F811F928F938E811F928F93DD
:100440008D811F928F9384E291E09F938F930E94FE
:10045000EA010FB6F894DEBF0FBECDBF28960FB6E7
:10046000F894DEBF0FBECDBFDF91CF910895EF921C
:10047000FF920F931F93CF93DF9300D000D0CDB79F
:10048000DEB7F89440917303509174036091750343
:100490007091760378948F3F980709F05BC0809144
:1004A000EC039091ED03A091EE03B091EF038A016C
:1004B0009B01081B190B2A0B3B0BD901C80189387A
:1004C0009341A105B10520F08091E4038823A9F0B0
:1004D0008091E8039091E903A091EA03B091EB03C6
:1004E0008A019B01081B190B2A0B3B0BD901C80180
:1004F00089399A43A105B10510F14093E80350935F
:10050000E9036093EA037093EB030E946B0011E030
:100510001093E4031092E7031092E60360E08091E9
:10052000790390917A030E9409011092EC031092D2
:10053000ED031092EE031092EF031093F2030F906D
:100540000F900F900F90DF91CF911F910F91FF901F
:10055000EF9008954093E8035093E9036093EA0312
:100560007093EB038A30910531F40E946B0081E0B7
:100570008093F203E4CF2091E2033091E30324302F
:100580003105C4F48A309105ACF4F901E958FC4F07
:10059000DC01AC5EBE4F4C9146832F5F3F4F3093E2
:1005A000E3032093E20329583C4FF901168221E02E
:1005B0002093F2032091E2033091E30324303105CC
:1005C00009F0BDCF0B9709F0BACF0E940C0288E367
:1005D00091E00E94D301F12CE12C10E000E0809129
:1005E000770390917803081719070CF076C0BE01C5
:1005F0006F5F7F4FC7010E945300298180917D0367
:10060000082E000C990B2817190609F060C02A81E2
:1006100080917E03082E000C990B2817190609F00B
:1006200056C02B8180917F03082E000C990B281750
:10063000190609F04CC02C8180918003082E000C13
:10064000990B2817190609F042C00E940C021F934B
:100650000F9389E491E09F938F930E94EA01109297
:10066000E4031092E7031092E6030E946B0061E03E
:100670008091790390917A030E9409011093F1030C
:100680000093F003F8948091730390917403A09108
:100690007503B091760378948093EC039093ED0307
:1006A000A093EE03B093EF030F900F900F900F9075
:1006B0008091E503882309F45ACF1092E50360E0A6
:1006C00080917B0390917C030E94090150CF0F5FC2
:1006D0001F4FF5E0EF0EF11C82CF0E946B0080915E
:1006E000E403882309F443CF2091E6033091E70324
:1006F0002F5F3F4F3093E7032093E60383E090E0C2
:10070000821B930B9F938F9384E691E09F938F932B
:100710000E94EA010F900F900F900F908091E603D6
:100720009091E70303970CF422CF8091E5038111A8
:100730001ECF81E08093E50361E0C2CFCF93C82F45
:1007400083E090E00E9409016C2F617084E090E0EA
:100750000E940901C1FB662760F985E090E00E94D4
:100760000901C2FB662760F986E090E00E9409015A
:10077000C3FB662760F987E090E00E94090161E011
:1007800082E090E00E9409018FE99FE00197F1F774
:1007900000C0000060E082E090E00E9409019AE061
:1007A0009A95F1F700C08FE19EE40197F1F700C040
:1007B0000000CF910895CF93DF93D82FC62F83E009
:1007C00090E00E9409016C2F8D2F82958F700E94FE
:1007D0009E036C2F8D2F8F70DF91CF910C949E0311
:1007E000E82FF0E0E05EFE4F808160E080680C94CE
:1007F000DB03CF93DF93EC018991882321F061E043
:100800000E94DB03F9CFDF91CF9108951F920F92E1
:100810000FB60F9211242F933F934F935F936F93D3
:100820007F938F939F93AF93BF93EF93FF938091A9
:10083000730390917403A0917503B09176030196B0
:10084000A11DB11D8093730390937403A09375034E
:10085000B093760360917303709174038091750374
:100860009091760328EE33E040E050E00E9492073A
:10087000672B682B692B99F480916F03909170031B
:10088000A0917103B09172030196A11DB11D8093D7
:100890006F0390937003A0937103B0937203FF9161
:1008A000EF91BF91AF919F918F917F916F915F91E8
:1008B0004F913F912F910F900FBE0F901F90189561
:1008C0001F920F920FB60F9211248F939F93EF9365
:1008D000FF93E0916A03F0916B038091C600E659A3
:1008E000FD4F8083E0916A03F0916B03E659FD4F61
:1008F0008081882349F0E0916A03F0916B03E65907
:10090000FD4F80818D3019F481E080936E038091DA
:100910006C0390916D03019690936D0380936C032B
:1009200080916A0390916B03019690936B0380937F
:100930006A0380916A0390916B038F3F910529F0C0
:1009400020F010926B0310926A03FF91EF919F9138
:100950008F910F900FBE0F901F901895CF93DF933C
:10096000CDB7DEB7CA5DD1090FB6F894DEBF0FBEB2
:10097000CDBF61E08AE090E00E946E0161E08BE013
:1009800090E00E946E0161E08CE090E00E946E01B8
:1009900061E08DE090E00E946E0160E08EE090E00A
:1009A0000E946E0160E08FE090E00E946E0160E0C6
:1009B00080E190E00E946E011092C50087E680936E
:1009C000C40088E98093C1008EE08093C20061E09A
:1009D00082E090E00E946E0161E083E090E00E947E
:1009E0006E0161E084E090E00E946E0161E085E0CC
:1009F00090E00E946E0161E086E090E00E946E014E
:100A000061E087E090E00E946E0160E082E090E0AB
:100A10000E94090160E083E090E00E94090160E02B
:100A200084E090E00E94090160E085E090E00E948F
:100A3000090160E086E090E00E94090160E087E043
:100A400090E00E9409018FE39FE10197F1F700C058
:100A5000000060E082E00E949E0360E081E00E946E
:100A6000DB0360E082E00E94DB0360E08CE00E9438
:100A7000DB0384EA91E00E94F903AFEDBEE2119737
:100A8000F1F700C00000809181008A6080938100AE
:100A900087E08093890080ED8093880080916F00CB
:100AA000826080936F007894AAE0B1E080E0ED91DD
:100AB000FD919F012C5F3F4F982F4191F999FECFF7
:100AC00012BC91BD40BDFA9AF99A9F5F2E173F075D
:100AD000A1F78B5F893159F788E090E090937A0312
:100AE0008093790389E090E090937C0380937B036B
:100AF00061E088E090E00E946E0161E089E090E0B2
:100B00000E946E0160E088E090E00E94090160E0D0
:100B100089E090E00E94090181E08093E403109253
:100B2000E5031092E7031092E6030E946B0080EB4E
:100B300091E00E94D30110E000E0FE0131966F01C8
:100B4000B601C8010E94530089818F3F79F08091DE
:100B500077039091780301969093780380937703BD
:100B60000B5F1F4F0130F4E01F0751F780917803AE
:100B70008F93809177038F938FEB91E09F938F9367
:100B80000E94EA011092F2038BED91E00E94D301E2
:100B90000F900F900F900F9022242394312CAE01D0
:100BA0004B595F4FCC52DF4F59834883C45DD040CF
:100BB0007E0158E6E50EF11C86E091E0C952DF4F58
:100BC00099838883C75DD040B12CA12C0FEF1FEF14
:100BD000C952DF4FA881B981C75DD0406D90C9521D
:100BE000DF4FB983A883C75DD040062C000C77087F
:100BF00061E0C3010E94090183E0482E81E0582E84
:100C0000F501E350F140C752DF4FF983E883C95D36
:100C1000D040D2018D902D01082C000C9908C40100
:100C20000E94F500CA52DF4F8883C65DD040C401E0
:100C30000E94E000CA52DF4FB881C65DD040B1309B
:100C400009F472C008F458C0B23009F476C0E6E086
:100C5000F1E0E415F505E9F660E0C3010E94090141
:100C6000F3E0AF0EB11C4CE0A416B10409F0B0CF14
:100C70000A30110549F00B30110509F467C00C303A
:100C8000110511F40BE010E0809101019091020137
:100C90008017910709F45DC01093020100930101D0
:100CA000C8010F3F1F4F09F056C08091F2038823FF
:100CB00009F46DC060E081E00E94DB0380E00E94E7
:100CC000F0038AEF91E00E94F90381E00E94F003B3
:100CD0008AE092E00E94F90310E000E08091E203D4
:100CE0009091E30308171907CCF581E192E00E9487
:100CF000F9030F5F1F4FF2CF23B1F10102C0EE0FD6
:100D0000FF1F8A95E2F7CF0130E082239323181664
:100D100019060CF09CCFC752DF4F08811981C95DBD
:100D2000D040040D151D93CF26B1A10102C0440F80
:100D3000551F8A95E2F7CA01E7CF29B1D10102C058
:100D4000AA0FBB1F8A95E2F7CD01DECF10E000E0CD
:100D50009BCF8FEF9FEF0E943702A7CF8091E503D3
:100D6000882339F082E00E94F00383E192E00E9440
:100D7000F90383E00E94F0038091E403882309F4DF
:100D800066C08DE891E00E94F9031092F2030E9480
:100D9000D100882309F410CFA8961FAE1EAEA897E5
:100DA0008601F6011192CC52DF4F88819981C45D92
:100DB000D040E817F907B1F70E94D100882309F461
:100DC00049C0F8948091680290916902FC01E6594B
:100DD000FD4F4081019690936902809368022091B3
:100DE0006C0330916D032150310930936D032093D2
:100DF0006C038F3F910529F020F010926902109248
:100E00006802E0916802F0916902E659FD4F808125
:100E1000882319F080818D3011F410926E0378943C
:100E20004D3051F2A8968EAD9FADA89784369105AE
:100E30001CF6F601E80FF91F40830196A8969FAFB4
:100E40008EAFA8978C0D9D1DDC011C92B5CF89E952
:100E500091E099CFDF92CF9283E292E09F938F93BC
:100E6000FF92EF920E94CE07C7010E94D3010F901C
:100E70000F900F900F900F900F9020E030E0A9019D
:100E8000D801ED918D0180ED8E0F8A3090F4AAE0AB
:100E9000B0E00E94B4072E2FEE0F330B2053310920
:100EA000032E000C440B550B260F371F481F591FEC
:100EB000E7CF20533A4241095109F89420936F0338
:100EC0003093700340937103509372037894CE0172
:100ED00084539F4F0E947800CE52DF4F8881C25DBD
:100EE000D0401F928F93CF52DF4F8881C15DD04099
:100EF0001F928F93C053DF4F8881C05DD0401F92F7
:100F00008F9381E392E09F938F93FF92EF920E94E1
:100F1000CE07C7010E94D3010FB6F894DEBF0FBE03
:100F2000CDBF4ACEA1E21A2EAA1BBB1BFD010DC0EC
:100F3000AA1FBB1FEE1FFF1FA217B307E407F50789
:100F400020F0A21BB30BE40BF50B661F771F881F65
:100F5000991F1A9469F760957095809590959B01FB
:100F6000AC01BD01CF0108950E94BF07A59F900D60
:100F7000B49F900DA49F800D911D11240895A29FF0
:100F8000B001B39FC001A39F700D811D1124911D5D
:100F9000B29F700D811D1124911D0895AEE0B0E047
:100FA000E4EDF7E00C949A0A0D891E8986E08C83A3
:100FB0001A8309838FEF9FE79E838D83AE01475E7F
:100FC0005F4F6F89788DCE0101960E940E082F81A8
:100FD0003885020F131FF80110822E96E4E00C945E
:100FE000B60AAEE0B0E0E7EFF7E00C949A0A8C01A5
:100FF00086E08C831A8309838FEF9FE79E838D831E
:10100000CE0101960E940E082F813885020F131F12
:10101000F80110822E96E4E00C94B60AABE0B0E042
:10102000E4E1F8E00C948C0A7C013B018A01FC01AC
:1010300017821682838181FFC8C1CE0101965C01AF
:10104000F7019381F30193FD859193FF81913F0116
:10105000882309F453C1853239F493FD859193FFB8
:1010600081913F01853229F4B70190E00E94FE0989
:10107000E7CF912C212C312CFFE1F31538F08B3286
:1010800011F190F4803209F1833229F137FC3CC030
:1010900020ED280F2A3050F536FE20C08AE0989EB9
:1010A000200D1124922E06C08D3291F0803371F7FD
:1010B000689430F8F30193FD859193FF81913F018E
:1010C0008111DACF21C0689431F8689432F8F2CFF8
:1010D000689433F8EFCF689434F8ECCFEAE02E9EB2
:1010E000200D1124222E689435F8E4CF8E3229F495
:1010F00036FC04C1689436F8DDCF8C3619F4689458
:1011000037F8D8CF8836B1F2982F9F7D9554933019
:10111000E0F08336A1F18337C1F1833509F063C074
:101120002801F2E04F0E511CF801C080D180692DDA
:1011300070E036FC02C06FEF7FEFC6010E94E80945
:101140004C01689437F882010AC00C5F1F4FFFE31F
:10115000F98388248394912C6501E89437F833FE51
:101160002DC0522C8114910471F5552009F468CFDB
:10117000B70180E290E00E94FE095A94F6CFF80190
:10118000808189830E5F1F4FE4CF2801F2E04F0E6C
:10119000511CF801C080D180692D70E036FC02C07E
:1011A0006FEF7FEFC6010E94F3094C018201D5CF9A
:1011B000B70180E290E00E94FE092A9428141904E5
:1011C00009F0B0F7CECFF60137FC859137FE81915B
:1011D0006F01B70190E00E94FE0951105A94F1E0AE
:1011E0008F1A9108BFCF843619F0893609F077C07D
:1011F000F80137FE6BC060817181828193810C5F41
:101200001F4FF32DFF763F2E97FF09C090958095D5
:10121000709561957F4F8F4F9F4F689437F82AE004
:1012200030E0A5010E942E0AC82ECA188C2C432C2F
:1012300036FE0CC0E89440F8C91440F434FE05C0F2
:1012400032FC03C0F32DFE7E4F2E892C44FE95C048
:10125000FE01EC0DF11D8081803309F087C0242D43
:10126000297E422E842D8870582E43FC95C040FE66
:101270008FC09C2C821418F42C0C922C981844FECD
:1012800091C0B70180E390E00E94FE0942FE09C0D0
:1012900088E790E041FE02C088E590E0B7010E9437
:1012A000FE09C91408F48AC0CA94D12C9FEFC91A48
:1012B000D90ACA0CDB1CF60182916F01B70190E0DC
:1012C0000E94FE09AC14BD04B1F74FCF608171815B
:1012D000072E000C880B990B0E5F1F4F92CFD32C5B
:1012E000E894D4F82AE030E0853739F1232D297FBE
:1012F000D22E8F3601F148F48835A9F0F7018681A6
:1013000097812B96E2E10C94A80A803749F0883740
:10131000A9F7D4FE02C06894D2F820E130E00DC0F5
:101320006894D4F8F6CF34FE03C0822F8660D82E9E
:1013300020E132E002C028E030E0F801D7FE0FC023
:1013400060817181828193810C5F1F4FA5010E9492
:101350002E0AC82ECA183D2CE89437F867CF608152
:10136000718190E080E00E5F1F4FF0CF42FC02C021
:10137000839478CF8394839475CF842D867809F4F1
:1013800071CFF6CFB70180E290E00E94FE0983940E
:101390008214C0F3512C73CF522C5818821408F4C5
:1013A0006ECFF8CF842D867809F47BCF8BE241FE97
:1013B00080E247FC8DE2B70190E071CFB70180E396
:1013C00090E00E94FE099A946CCF8FEF9FEF99CF27
:1013D000FC010590615070400110D8F78095909500
:1013E0008E0F9F1F0895FC01615070400190011005
:1013F000D8F7809590958E0F9F1F08950F931F9398
:10140000CF93DF93182F092FEB018B8181FD09C04A
:101410001FEF0FEF812F902FDF91CF911F910F9131
:10142000089582FF14C02E813F818C819D812817F1
:1014300039073CF4E881F981CF01019699838883CB
:1014400010838E819F8101969F838E83E3CFE885F1
:10145000F985812F0995892BA1F3DACFFA01AA2703
:10146000283051F1203181F1E8946F936E7F6E5FE7
:101470007F4F8F4F9F4FAF4FB1E03ED0B4E03CD095
:10148000670F781F891F9A1FA11D680F791F8A1F78
:10149000911DA11D6A0F711D811D911DA11D20D0DF
:1014A00009F468943F912AE0269F11243019305D99
:1014B0003193DEF6CF010895462F4770405D41938A
:1014C000B3E00FD0C9F7F6CF462F4F70405D4A33D7
:1014D00018F0495D31FD4052419302D0A9F7EACF9F
:1014E000B4E0A6959795879577956795BA95C9F7CE
:1014F00000976105710508959B01AC010A2E0694C1
:101500005795479537952795BA95C9F7620F731F79
:10151000841F951FA01D08952F923F924F925F92B6
:101520006F927F928F929F92AF92BF92CF92DF92F3
:10153000EF92FF920F931F93CF93DF93CDB7DEB758
:10154000CA1BDB0B0FB6F894DEBF0FBECDBF0994EC
:101550002A88398848885F846E847D848C849B8443
:10156000AA84B984C884DF80EE80FD800C811B8151
:10157000AA81B981CE0FD11D0FB6F894DEBF0FBE80
:0A158000CDBFED010895F894FFCFF0
:10158A0001FFFF0E0F100A0B0C0D4E0253025802F8
:10159A005D026202303132333435363738392A2324
:1015AA000028143C5B253032643A253032643A25EF
:1015BA003032645D202D2000556E6C6F636B2061A4
:1015CA007474656D7074200A005573657220256401
:1015DA0020756E6C6F636B656420746865206C6F30
:1015EA00636B0A00496E636F72726563742070617F
:1015FA007373776F72642072656D6D61696E6720AF
:10160A00617474656D70733A2025640A0020202085
:10161A0020204C6F636B6564002020202020204F1F
:10162A0070656E0048656C6C6F20576F726C640051
:10163A004C6F6164696E672075736572733A002036
:10164A00256420757365727320666F756E642069F0
:10165A006E20454550524F4D210A00506C6561730A
:10166A00652073656E642063757272656E7420748A
:10167A00696D657374616D700A00456E74657220D8
:10168A0070617373776F72643A00202020202020E3
:10169A00002A00416C61726D2120706577207065A7
:1016AA0077210052656365697665643A2025730A75
:1016BA000054696D652073657420746F3A20253073
:1016CA0032643A253032643A253032640A003132C3
:1016DA003334003433323100343536370039383751
:0816EA00360030303030000002
:00000001FF
