:100000000C9434000C9451000C9451000C94510049
:100010000C9451000C9451000C9451000C9451001C
:100020000C9451000C9451000C9451000C94F10567
:100030000C9451000C9451000C9451000C945100FC
:100040000C9451000C9451000C944B060C945100EC
:100050000C9451000C9451000C9451000C945100DC
:100060000C9451000C94510011241FBECFEFD8E026
:10007000DEBFCDBF13E0A0E0B1E0E0E6FBE102C0EF
:1000800005900D92A634B107D9F725E0A6E4B3E0B8
:1000900001C01D92AC33B207E1F70E9499060C949F
:1000A000AE0D0C9400009C012C5F3F4F811544E085
:1000B000940778F4F999FECF92BD81BDF89A40B5C6
:1000C000FB014193BF0101968217930779F780E006
:1000D000089582E008954F925F926F927F928F927F
:1000E0009F92AF92BF92CF92DF92EF92FF920F93C7
:1000F0001F93CF93DF93CDB7DEB7E0970FB6F89499
:10010000DEBF0FBECDBF8C01F894C0904D04D090DF
:100110004E04E0904F04F090500478949CE3892EB4
:10012000912CA12CB12CC701B601A50194010E940C
:10013000660AF8016683CA01B901A50194010E940B
:10014000660AF8016583C701B60120E13EE040E0A0
:1001500050E00E94660ACA01B90128E130E040E09F
:1001600050E00E94660AF8016483C701B60120E8E6
:1001700031E541E050E00E94660ACA01B9016C5FB6
:100180007F4F8F4F9F4F27E030E040E050E00E94CC
:10019000660AF8016783C701B60120E833E341EE40
:1001A00051E00E94660A29015901FEE4AF1AF8EFF6
:1001B000BF0A450123E082229924D20120E833E3DB
:1001C00041EE51E00E94930AC61AD70AE80AF90ADA
:1001D0001297B7FD1396B595A795B595A79581E0AC
:1001E00090E08114910411F090E080E0A81BB90B1D
:1001F00020E831E541E050E00E94930AA701960112
:10020000261B370B480B590BCA01B90120E831E511
:1002100041E050E00E94660A80E3E3E0F1E0DE01A5
:10022000119601900D928A95E1F7892841F48DE1AC
:1002300090E0A0E0B0E08D839E83AF83B887FE019D
:10024000319681E090E0A0E0B0E0C190D190E190E3
:10025000F190C216D306E406F50640F42C193D09C8
:100260004E095F090196A11DB11DEFCFF801B182C2
:10027000A08282832383E0960FB6F894DEBF0FBE80
:10028000CDBFDF91CF911F910F91FF90EF90DF9045
:10029000CF90BF90AF909F908F907F906F905F9026
:1002A0004F900895F89480914C04882341F0209158
:1002B0004A0430914B0481E0232B09F480E07894C8
:1002C0000895CF93DF93DC01AB59BF4F11961C9279
:1002D0001E92FC019C012C593F4F1192E217F3072B
:1002E000E1F7FB016C597F4F41914423B1F02D910F
:1002F0003C911197243631056CF4EC01C20FD31FE9
:1003000048832F5F3F4F11963C932E93280F391F40
:10031000E90118826E177F0739F7DF91CF910895B1
:100320009C018830910580F0AC014850510946305D
:10033000510510F4885008952E50310926303105AA
:1003400010F48E5008958FEF08958830910558F07D
:100350009C01285031092630310538F00E97069758
:1003600030F08FEF089582E0089580E0089581E0F5
:1003700008950F931F93CF93DF938C01D62F0E9484
:10038000A501C82FC8010E949001DD2359F1C13099
:1003900099F038F0C230D9F0DF91CF911F910F91D1
:1003A000089595B121E030E001C0220F8A95EAF767
:1003B000892F822B85B9F0CF98B121E030E001C0C0
:1003C000220F8A95EAF7892F822B88B9E5CF9BB156
:1003D00021E030E001C0220F8A95EAF7892F822BB5
:1003E0008BB9DACFC130E9F078F0C230A9F64BB161
:1003F00021E030E0B90102C0660F771F8A95E2F76D
:10040000CB0180958423ECCF45B121E030E0B901E8
:1004100002C0660F771F8A95E2F7CB01809584238F
:10042000C9CF48B121E030E0B90102C0660F771FA3
:100430008A95E2F7CB0180958423C7CF8091C204CF
:100440009091C304892B21F48091C404811103C0CD
:1004500081E08093D20468E771E08DE594E00E942A
:10046000610181E08093C4041092C7041092C60415
:1004700060E080915704909158040E94B901109255
:10048000CC041092CD041092CE041092CF0468E7F1
:1004900071E085ED94E00C9461010F931F93CF936D
:1004A000DF938C01D62F0E94A501C82FC8010E949E
:1004B0009001DD2359F1C13099F038F0C230D9F004
:1004C000DF91CF911F910F91089594B121E030E019
:1004D00001C0220F8A95EAF7892F822B84B9F0CFC9
:1004E00097B121E030E001C0220F8A95EAF7892F09
:1004F000822B87B9E5CF9AB121E030E001C0220F0D
:100500008A95EAF7892F822B8AB9DACFC130E9F0D0
:1005100078F0C230A9F64AB121E030E0B90102C05A
:10052000660F771F8A95E2F7CB0180958423ECCF85
:1005300044B121E030E0B90102C0660F771F8A950F
:10054000E2F7CB0180958423C9CF47B121E030E0A9
:10055000B90102C0660F771F8A95E2F7CB0180953B
:100560008423C7CFFC0101900020E9F73197E81BF5
:10057000F90BDC019D01281B390B2E173F0744F4B2
:100580002091C00025FFFCCF2D912093C600F2CF13
:100590000895CF93DF93CDB7DEB7DA950FB6F89411
:1005A000DEBF0FBECDBF9E012B5F3E4FF9014191D3
:1005B00051919F0160E071E0CE0101960E94CD0A49
:1005C000CE0101960E94B202D3950FB6F894DEBF19
:1005D0000FBECDBFDF91CF910895CF93DF93CDB7FD
:1005E000DEB728970FB6F894DEBF0FBECDBFCE01A1
:1005F00001960E946B008A818F9389818F938B81F2
:100600001F928F938C811F928F938E811F928F9355
:100610008D811F928F938AE491E09F938F930E9424
:10062000C9020FB6F894DEBF0FBECDBF28960FB635
:10063000F894DEBF0FBECDBFDF91CF910895AF928A
:10064000BF92CF92DF92EF92FF920F931F93CF93BF
:10065000DF9300D000D000D0CDB7DEB7F894409142
:100660005104509152046091530470915404789451
:100670008F3F980709F078C08091D3049091D404FB
:100680000097E9F58091CC049091CD04A091CE041F
:10069000B091CF048A019B01081B190B2A0B3B0B5D
:1006A000D901C80189389341A105B10520F0809195
:1006B000C404882389F08091C8049091C904A09152
:1006C000CA04B091CB04481B590B6A0B7B0B493908
:1006D0005A436105710510F00E941E0226960FB65E
:1006E000F894DEBF0FBECDBFDF91CF911F910F9168
:1006F000FF90EF90DF90CF90BF90AF900895813042
:100700009105E9F48091C8049091C904A091CA04AC
:10071000B091CB04481B590B6A0B7B0B49395A43E8
:1007200061057105D8F28091550490915604181610
:100730001906A4F61092D4041092D304CDCF0297D8
:1007400069F68091CC049091CD04A091CE04B09133
:10075000CF04481B590B6A0B7B0B49395A4361057F
:10076000710508F4BBCFE6CF4093C8045093C90489
:100770006093CA047093CB048A30910551F468E702
:1007800071E08DE594E00E94610181E08093D204E4
:10079000A5CF2091C2043091C30424303105C4F4A4
:1007A0008A309105ACF4F901EB5AFB4FDC01A65CF1
:1007B000BE4FAC91A0872F5F3F4F3093C30420936F
:1007C000C2042B5A3B4FF901108621E02093D2043A
:1007D0002091C2043091C3042430310509F052C184
:1007E0008B30910509F04EC18091D3049091D404CF
:1007F000009709F0CAC00E94ED0288E691E00E94CD
:10080000B202F12CE12C10E000E0809155049091AF
:100810005604081719070CF07DC0BE016F5F7F4FAB
:10082000C7010E945300298180915D04082E000CAD
:10083000990B2817190609F067C02A8180915E0478
:10084000082E000C990B2817190609F05DC02B81A2
:1008500080915F04082E000C990B2817190609F0E7
:1008600053C02C8180916004082E000C990B28172E
:10087000190609F049C00E94ED021F930F9389E702
:1008800091E09F938F930E94C9021092C40410922A
:10089000C7041092C60468E771E08DE594E00E94F9
:1008A000610161E080915704909158040E94B90160
:1008B0001093D1040093D004F89480915104909146
:1008C0005204A0915304B091540478948093CC04C2
:1008D0009093CD04A093CE04B093CF040F900F90CB
:1008E0000F900F908091C504882349F01092C504A1
:1008F00060E08091590490915A040E94B9011092CD
:100900005C0410925B0441CF0F5F1F4FF5E0EF0EC8
:10091000F11C7BCF68E771E08DE594E00E946101F6
:100920008091C404882309F430CF2091C60430910B
:10093000C7042F5F3F4F3093C7042093C60483E062
:1009400090E0821B930B9F938F9384E991E09F9398
:100950008F930E94C9020F900F900F900F9080917B
:10096000C6049091C70403970CF40FCF8091C5047F
:1009700081110BCF81E08093C50461E0809159041F
:1009800090915A040E94B90100CF019709F0FDCE61
:1009900080915504909156040A970CF06EC0809196
:1009A0005D04898380915E048A8380915F048B83D8
:1009B000809160048C838E010F5F1F4F780110E0DF
:1009C00000E085E0B82E92E0A92E2DEBC22E21E0AA
:1009D000D22E2091550430915604B29EC001B39E90
:1009E000900D1124800F911F811524E09207D8F1FA
:1009F0001F92AF92DF92CF920E94C9020F900F9088
:100A00000F900F900F5F1F4FFFEFEF1AFF0A043098
:100A10001105F9F680915504909156040196909332
:100A20005604809355040E94ED02809155049091E4
:100A3000560401979F938F938AED91E09F938F9334
:100A40000E94C90268E771E08DE594E00E946101AF
:100A50000F900F900F900F901092D4041092D30427
:100A60000E941E0292CEF999FECFF701208192BD1D
:100A700081BD20BDFA9AF99AC5CF8EEE91E00E9411
:100A8000B202EACFE091C404E11128CE0B9709F03D
:100A900025CE232B09F022CE4093CC045093CD04D5
:100AA0006093CE047093CF0480915B0490915C04BA
:100AB000019690935C0480935B04039751F481E06A
:100AC00090E09093D4048093D30410925C0410922D
:100AD0005B0481E08093D20480915C048F938091C9
:100AE0005B048F9382E092E09F938F938E010F5F60
:100AF0001F4F1F930F930E94AA0AB80185ED94E03F
:100B00000E9461010F900F900F900F900F900F9027
:100B1000E5CDCF93C82F83E090E00E94B9016C2F00
:100B2000617084E090E00E94B901C1FB662760F922
:100B300085E090E00E94B901C2FB662760F986E07B
:100B400090E00E94B901C3FB662760F987E090E05E
:100B50000E94B90161E082E090E00E94B9018FE952
:100B60009FE00197F1F700C0000060E082E090E0B4
:100B70000E94B9019AE09A95F1F700C08FE19EE4D6
:100B80000197F1F700C00000CF910895CF93DF9354
:100B9000D82FC62F83E090E00E94B9016C2F8D2FD3
:100BA00082958F700E9489056C2F8D2F8F70DF9139
:100BB000CF910C948905E82FF0E0EA5BFE4F80812D
:100BC00060E080680C94C605CF93DF93EC018991B7
:100BD000882321F061E00E94C605F9CFDF91CF9113
:100BE00008951F920F920FB60F9211242F933F93E7
:100BF0004F935F936F937F938F939F93AF93BF9325
:100C0000EF93FF938091510490915204A09153046B
:100C1000B09154040196A11DB11D8093510490938D
:100C20005204A0935304B093540460915104709102
:100C30005204809153049091540428EE33E040E034
:100C400050E00E94660A672B682B692B99F480910B
:100C50004D0490914E04A0914F04B0915004019620
:100C6000A11DB11D80934D0490934E04A0934F0499
:100C7000B0935004FF91EF91BF91AF919F918F91ED
:100C80007F916F915F914F913F912F910F900FBE88
:100C90000F901F9018951F920F920FB60F9211246C
:100CA0008F939F93EF93FF93E0914804F091490451
:100CB0008091C600E85BFC4F8083E0914804F0918E
:100CC0004904E85BFC4F8081882349F0E0914804A7
:100CD000F0914904E85BFC4F80818D3019F481E08C
:100CE00080934C0480914A0490914B040196909318
:100CF0004B0480934A0480914804909149040196E2
:100D00009093490480934804809148049091490449
:100D10008F3F910529F020F0109249041092480469
:100D2000FF91EF919F918F910F900FBE0F901F90A9
:100D30001895CF93DF93CDB7DEB7CB50D2400FB627
:100D4000F894DEBF0FBECDBF61E08AE090E00E9464
:100D50004D0261E08BE090E00E944D0261E08CE08A
:100D600090E00E944D0261E08DE090E00E944D0213
:100D700060E08EE090E00E944D0260E08FE090E045
:100D80000E944D0260E080E190E00E944D021092CE
:100D9000C50087E68093C40088E98093C1008EE097
:100DA0008093C20061E082E090E00E944D0261E029
:100DB00083E090E00E944D0261E084E090E00E94B8
:100DC0004D0261E085E090E00E944D0261E086E026
:100DD00090E00E944D0261E087E090E00E944D02A9
:100DE00060E082E090E00E94B90160E083E090E082
:100DF0000E94B90160E084E090E00E94B90160E0E7
:100E000085E090E00E94B90160E086E090E00E94F9
:100E1000B90160E087E090E00E94B9018FE39FE1B3
:100E20000197F1F700C0000060E082E00E948905B0
:100E300060E081E00E94C60560E082E00E94C60595
:100E400060E08CE00E94C6058FE392E00E94E4051A
:100E5000AFEDBEE21197F1F700C000008091810074
:100E60008A608093810087E08093890080ED809381
:100E7000880080916F00826080936F00789488E092
:100E800090E0909358048093570489E090E0909309
:100E90005A048093590461E088E090E00E944D027A
:100EA00061E089E090E00E944D0260E088E090E01F
:100EB0000E94B90160E089E090E00E94B90181E000
:100EC0008093C4041092C5041092C7041092C60403
:100ED00068E771E08DE594E00E9461011092D4040E
:100EE0001092D3048BE492E00E94B20210E000E082
:100EF000BE016F5F7F4FC8010E94530089818F3F01
:100F000079F080915504909156040196909356047F
:100F1000809355040B5F1F4F0130B4E01B0741F76E
:100F20008091550490915604009709F0D1C08AE54C
:100F300092E00E94B20281E090E09093D40480930A
:100F4000D3041092D20482E992E00E94B202662495
:100F50006394712C26E3222E21E0322EE6E3F1E0A9
:100F6000C65FDD4FF983E883CA50D240F12CE12CF3
:100F70000FEF1FEFC65FDD4FA881B981CA50D24085
:100F8000CD90C65FDD4FB983A883CA50D2400C2CE8
:100F9000000CDD0861E0C6010E94B90193E3A92EAF
:100FA00091E0B92EF701E353F1402F01D5018D9067
:100FB0005D01082C000C9908C4010E94A501C75FBF
:100FC000DD4F8883C950D240C4010E949001C75FA1
:100FD000DD4FB881C950D240B13009F499C008F44E
:100FE00084C0B23009F49DC02A143B04F9F660E0D5
:100FF000C6010E94B901B3E0EB0EF11CECE0EE1665
:10100000F10409F0B7CF0A30110549F00B30110592
:1010100009F490C00C30110511F40BE010E0809140
:101020000101909102018017910709F486C0109385
:10103000020100930101C8010F3F1F4F09F07FC05B
:101040008091D204882309F494C060E081E00E947A
:10105000C60580E00E94DB058091D3049091D40402
:101060008130910509F0EDC0809156048F938091F5
:1010700055048F9381EB92E09F938F9321E030E0B2
:101080002C0F3D1F3F932F930E94AA0ACE01019679
:101090000E94E40581E00E94DB0583EC92E00E945F
:1010A000E4050F900F900F900F900F900F9010E0AD
:1010B00000E08091C2049091C304081719070CF056
:1010C00041C08AEC92E00E94E4050F5F1F4FF1CF10
:1010D0009F938F9386E792E09F938F930E94C9021C
:1010E0000F900F900F900F902CCF23B1F30102C0FF
:1010F000EE0FFF1F8A95E2F7CF0130E082239323A2
:10110000181619060CF070CF82010A0D1B1D6CCF4A
:1011100026B1A30102C0440F551F8A95E2F7CA0108
:10112000ECCF29B1D30102C0AA0FBB1F8A95E2F709
:10113000CD01E3CF10E000E072CF8FEF9FEF0E9470
:101140001F037ECF82E00E94DB05809155049091C1
:1011500056040A9709F072C087E092E00E94E40505
:1011600083E00E94DB058CEC92E00E94E405109283
:10117000D2040E945201882309F4F0CEA8961FAE33
:101180001EAEA897FE0131967F01CE018B599F4F6D
:101190001192E817F907E1F70E945201882309F438
:1011A00001C1F8948091460390914703FC01E85BEC
:1011B000FC4F408101969093470380934603209112
:1011C0004A0430914B042150310930934B04209351
:1011D0004A048F3F910529F020F0109247031092A6
:1011E0004603E0914603F0914703E85BFC4F8081A2
:1011F000882319F080818D3011F410924C0478947A
:101200004D3051F2A8968EAD9FADA89784369105CA
:101210001CF6E1E0F0E0EC0FFD1FE80FF91F408342
:101220000196A8969FAF8EAFA89721E030E02C0FD3
:101230003D1F820F931FDC011C92AECF89E192E02B
:101240008DCF8230910509F06AC080913A05909166
:101250003B0541970CF45CC085E5C82E84E0D82E90
:10126000FE01EA59FF4F30E020E050E040E087E621
:10127000829FB001839F700D1124A1E0B0E0AC0FFC
:10128000BD1F6A0F7B1F80819181843691059CF47C
:101290007B01E80EF91E8A0100581F4F0C0D1D1D21
:1012A000D8011C91D7011C93019691838083860FEE
:1012B000971FDC011C924F5F5F4F4031510519F7BA
:1012C0002F5F3F4FB0E1CB0ED11CE959FF4F2430C7
:1012D000310559F680E00E94DB05CE0101960E949F
:1012E000E40581E00E94DB05CE0188599F4F0E94F2
:1012F000E40582E00E94DB05CE0181539F4F0E94EE
:10130000E40583E00E94DB05CE018A5C9E4F2DCF71
:1013100065ED74E0CE0101960E946101DBCF892B5F
:1013200009F025CF8DED92E00E94E40581E00E9456
:10133000DB0583EC92E00E94E40510E000E0809180
:10134000C2049091C304081719073CF48AEC92E098
:101350000E94E4050F5F1F4FF2CF8091C5048823E0
:1013600089F082E00E94DB058DEE92E00E94E405A8
:1013700083E00E94DB058091C404882381F088E229
:1013800092E0F3CE80913A0590913B05181619062C
:101390007CF782E00E94DB0585ED94E0E7CF84E3F3
:1013A00092E0E3CEE1E0F0E0EC0FFD1FFF93EF935E
:1013B0008DEF92E09F938F938E0103561E4F1F93E4
:1013C0000F930E94AA0AC8010E94B2020F900F90C8
:1013D0000F900F900F900F9020E030E0A901D701FF
:1013E000ED917D0180ED8E0F8A3090F4AAE0B0E09F
:1013F0000E94880A2E2FEE0F330B20533109032E43
:10140000000C440B550B260F371F481F591FE7CF01
:1014100020533A4241095109F89420934D043093E6
:101420004E0440934F04509350047894CE018F5F44
:101430009D4F0E946B00C95FDD4F8881C750D2402D
:101440001F928F93CA5FDD4F8881C650D2401F9292
:101450008F93CB5FDD4F8881C550D2401F928F9311
:101460008BE093E09F938F931F930F930E94AA0AA0
:10147000C8010E94B202CE5FDD4F8881C250D240C7
:101480008F93CF5FDD4F8881C150D2408F93CD5F66
:10149000DD4F8881C350D2401F928F93CC5FDD4FC8
:1014A0008881C450D2401F928F9388E293E09F932B
:1014B0008F931F930F930E94AA0AC8010E94B20241
:1014C0000FB6F894DEBF0FBECDBF44CDA1E21A2EF9
:1014D000AA1BBB1BFD010DC0AA1FBB1FEE1FFF1FD8
:1014E000A217B307E407F50720F0A21BB30BE40B28
:1014F000F50B661F771F881F991F1A9469F760956F
:101500007095809590959B01AC01BD01CF01089528
:101510000E949B0AA59F900DB49F900DA49F800DE3
:10152000911D11240895B7FF0C94880A0E94880A1F
:10153000821B930B0895A29FB001B39FC001A39F8C
:10154000700D811D1124911DB29F700D811D1124FC
:10155000911D0895AEE0B0E0E0EBFAE00C94850D4B
:101560000D891E8986E08C831A8309838FEF9FE79C
:101570009E838D83AE01475E5F4F6F89788DCE016C
:1015800001960E94F90A2F813885020F131FF80176
:1015900010822E96E4E00C94A10DAEE0B0E0E3EDF5
:1015A000FAE00C94850D8C01FA0186E08C831A8395
:1015B000098377FF02C060E070E8615071097E83A3
:1015C0006D83A901BF01CE0101960E94F90A4D81E8
:1015D0005E8157FD0AC02F813885421753070CF4EE
:1015E0009A01020F131FF80110822E96E4E00C946A
:1015F000A10DABE0B0E0EFEFFAE00C94770D7C01C9
:101600003B018A01FC0117821682838181FFC8C1D8
:10161000CE0101965C01F7019381F30193FD859161
:1016200093FF81913F01882309F453C1853239F436
:1016300093FD859193FF81913F01853229F4B70194
:1016400090E00E94E90CE7CF912C212C312CFFE196
:10165000F31538F08B3211F190F4803209F18332B6
:1016600029F137FC3CC020ED280F2A3050F536FE1A
:1016700020C08AE0989E200D1124922E06C08D3243
:1016800091F0803371F7689430F8F30193FD859100
:1016900093FF81913F018111DACF21C0689431F825
:1016A000689432F8F2CF689433F8EFCF689434F846
:1016B000ECCFEAE02E9E200D1124222E689435F8FE
:1016C000E4CF8E3229F436FC04C1689436F8DDCFBD
:1016D0008C3619F4689437F8D8CF8836B1F2982F41
:1016E0009F7D95549330E0F08336A1F18337C1F1AB
:1016F000833509F063C02801F2E04F0E511CF80158
:10170000C080D180692D70E036FC02C06FEF7FEFA2
:10171000C6010E94D30C4C01689437F882010AC0BC
:101720000C5F1F4FFFE3F98388248394912C65019C
:10173000E89437F833FE2DC0522C8114910471F5D2
:10174000552009F468CFB70180E290E00E94E90CCF
:101750005A94F6CFF801808189830E5F1F4FE4CF42
:101760002801F2E04F0E511CF801C080D180692D94
:1017700070E036FC02C06FEF7FEFC6010E94DE0C06
:101780004C018201D5CFB70180E290E00E94E90CC4
:101790002A942814190409F0B0F7CECFF60137FCCB
:1017A000859137FE81916F01B70190E00E94E90CAD
:1017B00051105A94F1E08F1A9108BFCF843619F076
:1017C000893609F077C0F80137FE6BC060817181FE
:1017D000828193810C5F1F4FF32DFF763F2E97FF81
:1017E00009C090958095709561957F4F8F4F9F4F61
:1017F000689437F82AE030E0A5010E94190DC82E40
:10180000CA188C2C432C36FE0CC0E89440F8C9143E
:1018100040F434FE05C032FC03C0F32DFE7E4F2E93
:10182000892C44FE95C0FE01EC0DF11D80818033B2
:1018300009F087C0242D297E422E842D8870582ED1
:1018400043FC95C040FE8FC09C2C821418F42C0CD5
:10185000922C981844FE91C0B70180E390E00E945A
:10186000E90C42FE09C088E790E041FE02C088E52D
:1018700090E0B7010E94E90CC91408F48AC0CA9428
:10188000D12C9FEFC91AD90ACA0CDB1CF601829130
:101890006F01B70190E00E94E90CAC14BD04B1F7F0
:1018A0004FCF60817181072E000C880B990B0E5F62
:1018B0001F4F92CFD32CE894D4F82AE030E085373C
:1018C00039F1232D297FD22E8F3601F148F4883546
:1018D000A9F0F701868197812B96E2E10C94930D94
:1018E000803749F08837A9F7D4FE02C06894D2F84F
:1018F00020E130E00DC06894D4F8F6CF34FE03C088
:10190000822F8660D82E20E132E002C028E030E04D
:10191000F801D7FE0FC060817181828193810C5FD5
:101920001F4FA5010E94190DC82ECA183D2CE8941E
:1019300037F867CF6081718190E080E00E5F1F4FC4
:10194000F0CF42FC02C0839478CF8394839475CF08
:10195000842D867809F471CFF6CFB70180E290E04C
:101960000E94E90C83948214C0F3512C73CF522C43
:101970005818821408F46ECFF8CF842D867809F4B5
:101980007BCF8BE241FE80E247FC8DE2B70190E025
:1019900071CFB70180E390E00E94E90C9A946CCF7C
:1019A0008FEF9FEF99CFFC010590615070400110BF
:1019B000D8F7809590958E0F9F1F0895FC01615078
:1019C000704001900110D8F7809590958E0F9F1F61
:1019D00008950F931F93CF93DF93182F092FEB01D7
:1019E0008B8181FD09C01FEF0FEF812F902FDF91B9
:1019F000CF911F910F91089582FF14C02E813F81D6
:101A00008C819D81281739073CF4E881F981CF0149
:101A100001969983888310838E819F8101969F838D
:101A20008E83E3CFE885F985812F0995892BA1F372
:101A3000DACFFA01AA27283051F1203181F1E89458
:101A40006F936E7F6E5F7F4F8F4F9F4FAF4FB1E0B1
:101A50003ED0B4E03CD0670F781F891F9A1FA11DAC
:101A6000680F791F8A1F911DA11D6A0F711D811DAD
:101A7000911DA11D20D009F468943F912AE0269F72
:101A800011243019305D3193DEF6CF010895462FD1
:101A90004770405D4193B3E00FD0C9F7F6CF462FB2
:101AA0004F70405D4A3318F0495D31FD405241931B
:101AB00002D0A9F7EACFB4E0A695979587957795D8
:101AC0006795BA95C9F700976105710508959B015F
:101AD000AC010A2E06945795479537952795BA95E8
:101AE000C9F7620F731F841F951FA01D08952F92C1
:101AF0003F924F925F926F927F928F929F92AF929E
:101B0000BF92CF92DF92EF92FF920F931F93CF93EA
:101B1000DF93CDB7DEB7CA1BDB0B0FB6F894DEBF81
:101B20000FBECDBF09942A88398848885F846E84A7
:101B30007D848C849B84AA84B984C884DF80EE80F1
:101B4000FD800C811B81AA81B981CE0FD11D0FB6FA
:101B5000F894DEBF0FBECDBFED010895F894FFCF1E
:101B600001FFFF1F0000001C0000001F0000001EFE
:101B70000000001F0000001E0000001F0000001FEA
:101B80000000001E0000001F0000001E0000001FDB
:101B90000000000E0F100A0B0C0D303132333435BB
:101BA000363738392A230028143C5B253032643A12
:101BB0002530326420253032642F253032642F25C1
:101BC0003034645D202D2000556E6C6F636B206196
:101BD0007474656D7074200A0055736572202564F5
:101BE00020756E6C6F636B656420746865206C6F24
:101BF000636B0A00496E636F727265637420706173
:101C00007373776F72642072656D6D61696E6720A2
:101C1000617474656D70733A2025640A00457272B0
:101C20006F722077726974696E6720746F20454502
:101C300050524F4D3A2025640A0055736572202595
:101C40006420726567697374657265640A004D612A
:101C500078207573657273207265616368656421AD
:101C60000A0023782564004D6178207573657273CE
:101C7000207265616368656400456E746572203426
:101C8000206469676974730020202020204C6F63F2
:101C90006B6564002020202020204F70656E004876
:101CA000656C6C6F20576F726C64004C6F61646977
:101CB0006E672075736572733A00204E6F207573DE
:101CC00065727320666F756E6420696E204545509D
:101CD000524F4D210A0020256420757365727320D0
:101CE000666F756E6420696E20454550524F4D21D8
:101CF0000A00506C656173652073656E64206375BE
:101D00007272656E742074696D657374616D700AAA
:101D1000005265676973746572205573657220257A
:101D2000643A00202020202020002A004320436C19
:101D3000656172207C2023205361766500456E74B6
:101D400065722070617373776F72643A00416C61E1
:101D5000726D212070657720706577210052656370
:101D600065697665643A2025730A0054696D6520BB
:101D700073657420746F3A20253032643A2530320E
:101D8000643A253032640A004461746520736574D6
:101D900020746F3A20253032642F253032642F258D
:061DA0003032640A00006D
:00000001FF
