:100000000C9434000C9451000C9451000C94510049
:100010000C9451000C9451000C9451000C9451001C
:100020000C9451000C9451000C9451000C943A0221
:100030000C9451000C9451000C9451000C945100FC
:100040000C9451000C9451000C9494020C945100A7
:100050000C9451000C9451000C9451000C945100DC
:100060000C9451000C94510011241FBECFEFD8E026
:10007000DEBFCDBF11E0A0E0B1E0E6E7F2E102C0F3
:1000800005900D92AA3DB107D9F723E0AAEDB1E0A2
:1000900001C01D92A436B207E1F70E94E2020C945F
:1000A00039090C9400001092550310925403EFEE9E
:1000B000F2E083E593E011928E179F07E1F7089530
:1000C0008F929F92AF92BF92CF92DF92EF92FF9268
:1000D000CF93DF93EC01F894C090E502D090E60254
:1000E000E090E702F090E80278948CE3882E912C5F
:1000F000A12CB12CC701B601A50194010E942506CF
:100100006E83CA01B901A50194010E9425066D8381
:10011000C701B60120E13EE040E050E00E94250624
:10012000CA01B90128E130E040E050E00E94250614
:100130006C83C701B60120E831E541E050E00E9440
:100140002506CA01B9016C5F7F4F8F4F9F4F27E093
:1001500030E040E050E00E9425066F83DF91CF91B0
:10016000FF90EF90DF90CF90BF90AF909F908F90D7
:100170000895F8948091E002882341F02091DE02F6
:100180003091DF0281E0232B09F480E07894089518
:100190009C018830910580F0AC01485051094630EF
:1001A000510510F4885008952E503109263031053C
:1001B00010F48E5008958FEF08958830910558F00F
:1001C0009C01285031092630310538F00E970697EA
:1001D00030F08FEF089582E0089580E0089581E087
:1001E00008950F931F93CF93DF938C01D62F0E9416
:1001F000DD00C82FC8010E94C800DD2359F1C130BD
:1002000099F038F0C230D9F0DF91CF911F910F9162
:10021000089595B121E030E001C0220F8A95EAF7F8
:10022000892F822B85B9F0CF98B121E030E001C051
:10023000220F8A95EAF7892F822B88B9E5CF9BB1E7
:1002400021E030E001C0220F8A95EAF7892F822B46
:100250008BB9DACFC130E9F078F0C230A9F64BB1F2
:1002600021E030E0B90102C0660F771F8A95E2F7FE
:10027000CB0180958423ECCF45B121E030E0B9017A
:1002800002C0660F771F8A95E2F7CB018095842321
:10029000C9CF48B121E030E0B90102C0660F771F35
:1002A0008A95E2F7CB0180958423C7CF0F931F93E4
:1002B000CF93DF938C01D62F0E94DD00C82FC80199
:1002C0000E94C800DD2359F1C13099F038F0C230E6
:1002D000D9F0DF91CF911F910F91089594B121E052
:1002E00030E001C0220F8A95EAF7892F822B84B96A
:1002F000F0CF97B121E030E001C0220F8A95EAF7F4
:10030000892F822B87B9E5CF9AB121E030E001C077
:10031000220F8A95EAF7892F822B8AB9DACFC1306A
:10032000E9F078F0C230A9F64AB121E030E0B90135
:1003300002C0660F771F8A95E2F7CB018095842370
:10034000ECCF44B121E030E0B90102C0660F771F65
:100350008A95E2F7CB0180958423C9CF47B121E08C
:1003600030E0B90102C0660F771F8A95E2F7CB0132
:1003700080958423C7CFFC0101900020E9F73197D5
:10038000E81BF90BDC019D01281B390B2E173F07D9
:1003900044F42091C00025FFFCCF2D912093C6008E
:1003A000F2CF0895CF93C82F83E090E00E94F10030
:1003B0006C2F617084E090E00E94F100C1FB662721
:1003C00060F985E090E00E94F100C2FB662760F9C9
:1003D00086E090E00E94F100C3FB662760F987E0A9
:1003E00090E00E94F10061E082E090E00E94F10064
:1003F0008FE99FE00197F1F700C0000060E082E024
:1004000090E00E94F1009AE09A95F1F700C08FE128
:100410009EE40197F1F700C00000CF910895CF93BB
:10042000DF93D82FC62F83E090E00E94F1006C2F5D
:100430008D2F82958F700E94D2016C2F8D2F8F701F
:10044000DF91CF910C94D201E82FF0E0EA5EFE4FED
:10045000808160E080680C940F02CF93DF93EC0101
:100460008991882321F061E00E940F02F9CFDF918A
:10047000CF9108951F920F920FB60F9211242F93D0
:100480003F934F935F936F937F938F939F93AF931C
:10049000BF93EF93FF938091E1029091E202A091CC
:1004A000E302B091E4020196A11DB11D8093E10227
:1004B0009093E202A093E302B093E4026091E10220
:1004C0007091E2028091E3029091E40228EE33E021
:1004D00040E050E00E942506672B682B692B99F4B9
:1004E0008091E5029091E602A091E702B091E802C6
:1004F0000196A11DB11D8093E5029093E602A093A1
:10050000E702B093E802FF91EF91BF91AF919F9105
:100510008F917F916F915F914F913F912F910F90AC
:100520000FBE0F901F9018951F920F920FB60F924B
:1005300011248F939F93EF93FF93E091DC02F0914E
:10054000DD028091C600E452FE4F8083E091DC0220
:10055000F091DD02E452FE4F8081882349F0E09162
:10056000DC02F091DD02E452FE4F80818D3019F4FF
:1005700081E08093E0028091DE029091DF0201969B
:100580009093DF028093DE028091DC029091DD0285
:1005900001969093DD028093DC028091DC029091C1
:1005A000DD028F3F910529F020F01092DD021092BC
:1005B000DC02FF91EF919F918F910F900FBE0F90F2
:1005C0001F901895CF93DF93CDB7DEB7CC5DD109DF
:1005D0000FB6F894DEBF0FBECDBF61E08AE090E0B9
:1005E0000E94560161E08BE090E00E94560161E0BC
:1005F0008CE090E00E94560161E08DE090E00E9466
:10060000560160E08EE090E00E94560160E08FE0CD
:1006100090E00E94560160E080E190E00E94560167
:100620001092C50087E68093C40088E98093C100DA
:100630008EE08093C20061E082E090E00E9456016B
:1006400061E083E090E00E94560161E084E090E088
:100650000E94560161E085E090E00E94560161E051
:1006600086E090E00E94560161E087E090E00E9401
:10067000560160E082E090E00E94F10060E083E0DB
:1006800090E00E94F10060E084E090E00E94F100C0
:1006900060E085E090E00E94F10060E086E090E09C
:1006A0000E94F10060E087E090E00E94F1008FE39B
:1006B0009FE10197F1F700C0000060E082E00E9436
:1006C000D20160E081E00E940F0260E082E00E94BF
:1006D0000F0260E08CE00E940F0281E391E00E9433
:1006E0002D02AFEDBEE21197F1F700C0000080913E
:1006F00081008A608093810087E08093890080ED8B
:100700008093880080916F00826080936F0078945E
:100710008DE391E00E94BB0144244394512CFE01DF
:1007200031961F017E01F8E6EF0EF11C46E051E024
:10073000C752DF4F59834883C95DD040D12CC12CAB
:100740000FEF1FEFC752DF4FA881B981C95DD040BD
:10075000AD90C752DF4FB983A883C95DD0400A2C42
:10076000000CBB0861E0C5010E94F10083E0682E27
:1007700081E0782EF601E350F140C552DF4FF98356
:10078000E883CB5DD040D3018D903D01082C000C57
:100790009908C4010E94DD00C852DF4F8883C85DFC
:1007A000D040C4010E94C800C852DF4FB881C85D64
:1007B000D040B13009F474C008F45AC0B23009F422
:1007C00078C0E6E0F1E0E615F705E9F660E0C5017E
:1007D0000E94F100F3E0CF0ED11C2CE0C216D10430
:1007E00009F0B0CF0A30110549F00B30110509F4BA
:1007F00069C00C30110511F40BE010E0809101018B
:10080000909102018017910709F455C110930201DC
:10081000009301010F3F100709F44DC10A30110583
:1008200009F053C00E94530060E081E00E940F0273
:1008300080E00E9424028CE591E00E942D0281E07C
:100840000E9424028CE691E00E942D02D12CC12C42
:100850008091540390915503C816D9060CF0C9C075
:1008600083E791E00E942D028FEFC81AD80AF0CFDB
:1008700023B1F20102C0EE0FFF1F8A95E2F7CF010C
:1008800030E082239323181619060CF09ACFC55234
:10089000DF4F08811981CB5DD040060D171D91CF28
:1008A00026B1A20102C0440F551F8A95E2F7CA0182
:1008B000E7CF29B1D20102C0AA0FBB1F8A95E2F788
:1008C000CD01DECF10E000E099CF809154039091EC
:1008D000550384309105ACF40A30110594F4FC0101
:1008E000E751FD4FD801A65FBE4F2C91268301969C
:1008F000909355038093540387519D4FDC011696C6
:100900001C928091540390915503049709F08CCF69
:100910000B30110509F088CF30E020E050E040E0D6
:100920008091E9029091EA02481759070CF04AC0F9
:10093000DE01AC52BF4F5901E4E0AE0EB11CC9015B
:10094000FD01811564E0960758F4F999FECF92BD38
:1009500081BDF89AD0B4DD9201968A159B0589F77E
:1009600060818091EF02082E000C990B6817190620
:1009700021F561818091F002082E000C990B681717
:100980001906D9F462818091F102082E000C990BAE
:100990006817190691F463818091F202082E000C09
:1009A000990B6817190649F41092560310925703D1
:1009B000109259031092580335CF4F5F5F4F2B5F52
:1009C0003F4FAECF80915803909159030196909379
:1009D00059038093580303970CF426CF81E080934A
:1009E000570361E08091ED029091EE020E94F100C8
:1009F0001BCF80915703882339F082E00E942402A4
:100A000085E791E00E942D0283E00E9424028091FC
:100A10005603882309F4AEC08AE191E00E942D02BA
:100A2000CE0184539F4F0E946000CE52DF4F8881D9
:100A3000C25DD0401F928F93CF52DF4F8881C15D3E
:100A4000D0401F928F93C053DF4F8881C05DD0404C
:100A50001F928F93A5E8B1E0BF93AF933F922F927F
:100A60000E946106C1010E94BB0189E991E00E94D8
:100A7000BB018FEE92E00E94BB0183EA91E00E94ED
:100A8000BB01F801E65FFE4F8081282F082E000C85
:100A9000330B3F938F9346EA51E05F934F93FF925E
:100AA000EF920E946106C7010E94BB010FB6F89445
:100AB000DEBF0FBECDBF0E94B900882309F436CE39
:100AC000A8961FAE1EAEA8978E010F5F1F4FCE01D6
:100AD0008B599F4FF80111928E179F07E1F70E94E3
:100AE000B900882309F449C0F8948091DA01909103
:100AF000DB01FC01E452FE4F408101969093DB0143
:100B00008093DA012091DE023091DF022150310919
:100B10003093DF022093DE028F3F910529F020F011
:100B20001092DB011092DA01E091DA01F091DB0121
:100B3000E452FE4F8081882319F080818D3011F4BA
:100B40001092E00278944D3051F2A8968EAD9FAD90
:100B5000A897843691051CF6F801E80FF91F408329
:100B60000196A8969FAF8EAFA897800F911FDC01CA
:100B70001C92B5CF85E291E051CF1F930F938FEA7E
:100B800091E09F938F93FF92EF920E946106C701BD
:100B90000E94BB010F900F900F900F900F900F903D
:100BA00020E030E0A901D801ED918D0180ED8E0F9C
:100BB0008A3090F4AAE0B0E00E9447062E2FEE0F94
:100BC000330B20533109032E000C440B550B260F19
:100BD000371F481F591FE7CF20533A424109510997
:100BE000F8942093E5023093E6024093E702509395
:100BF000E8027894CE0184539F4F0E946000CE5249
:100C0000DF4F8881C25DD0401F928F93CF52DF4F5C
:100C10008881C15DD0401F928F93C053DF4F888180
:100C2000C05DD0401F928F938DEB91E09F938F9387
:100C3000FF92EF920E946106C7010E94BB010FB6AE
:100C4000F894DEBF0FBECDBF71CDA1E21A2EAA1B54
:100C5000BB1BFD010DC0AA1FBB1FEE1FFF1FA2176C
:100C6000B307E407F50720F0A21BB30BE40BF50B69
:100C7000661F771F881F991F1A9469F760957095F2
:100C8000809590959B01AC01BD01CF0108950E9414
:100C90005206A59F900DB49F900DA49F800D911DAD
:100CA00011240895A29FB001B39FC001A39F700DAE
:100CB000811D1124911DB29F700D811D1124911D64
:100CC0000895AEE0B0E0E7E6F6E00C9410090D8977
:100CD0001E8986E08C831A8309838FEF9FE79E83AA
:100CE0008D83AE01475E5F4F6F89788DCE0101968F
:100CF0000E9484062F813885020F131FF80110828D
:100D00002E96E4E00C942C09ABE0B0E0EAE8F6E0C3
:100D10000C9402097C013B018A01FC0117821682B6
:100D2000838181FFC8C1CE0101965C01F7019381E7
:100D3000F30193FD859193FF81913F01882309F48D
:100D400053C1853239F493FD859193FF81913F0121
:100D5000853229F4B70190E00E947408E7CF912C06
:100D6000212C312CFFE1F31538F08B3211F190F486
:100D7000803209F1833229F137FC3CC020ED280F85
:100D80002A3050F536FE20C08AE0989E200D1124AE
:100D9000922E06C08D3291F0803371F7689430F84E
:100DA000F30193FD859193FF81913F018111DACF8A
:100DB00021C0689431F8689432F8F2CF689433F81F
:100DC000EFCF689434F8ECCFEAE02E9E200D11248A
:100DD000222E689435F8E4CF8E3229F436FC04C113
:100DE000689436F8DDCF8C3619F4689437F8D8CF8C
:100DF0008836B1F2982F9F7D95549330E0F083367A
:100E0000A1F18337C1F1833509F063C02801F2E015
:100E10004F0E511CF801C080D180692D70E036FC66
:100E200002C06FEF7FEFC6010E945E084C0168941C
:100E300037F882010AC00C5F1F4FFFE3F983882453
:100E40008394912C6501E89437F833FE2DC0522C21
:100E50008114910471F5552009F468CFB70180E23F
:100E600090E00E9474085A94F6CFF801808189833B
:100E70000E5F1F4FE4CF2801F2E04F0E511CF80126
:100E8000C080D180692D70E036FC02C06FEF7FEF2B
:100E9000C6010E9469084C018201D5CFB70180E2EA
:100EA00090E00E9474082A942814190409F0B0F7FD
:100EB000CECFF60137FC859137FE81916F01B701E6
:100EC00090E00E94740851105A94F1E08F1A910832
:100ED000BFCF843619F0893609F077C0F80137FEA4
:100EE0006BC060817181828193810C5F1F4FF32DF4
:100EF000FF763F2E97FF09C090958095709561957C
:100F00007F4F8F4F9F4F689437F82AE030E0A5015C
:100F10000E94A408C82ECA188C2C432C36FE0CC084
:100F2000E89440F8C91440F434FE05C032FC03C014
:100F3000F32DFE7E4F2E892C44FE95C0FE01EC0D54
:100F4000F11D8081803309F087C0242D297E422E37
:100F5000842D8870582E43FC95C040FE8FC09C2C79
:100F6000821418F42C0C922C981844FE91C0B701EE
:100F700080E390E00E94740842FE09C088E790E098
:100F800041FE02C088E590E0B7010E947408C914D0
:100F900008F48AC0CA94D12C9FEFC91AD90ACA0C86
:100FA000DB1CF60182916F01B70190E00E9474088A
:100FB000AC14BD04B1F74FCF60817181072E000CD6
:100FC000880B990B0E5F1F4F92CFD32CE894D4F867
:100FD0002AE030E0853739F1232D297FD22E8F3654
:100FE00001F148F48835A9F0F701868197812B96A5
:100FF000E2E10C941E09803749F08837A9F7D4FE46
:1010000002C06894D2F820E130E00DC06894D4F8B2
:10101000F6CF34FE03C0822F8660D82E20E132E066
:1010200002C028E030E0F801D7FE0FC06081718176
:10103000828193810C5F1F4FA5010E94A408C82ED6
:10104000CA183D2CE89437F867CF6081718190E031
:1010500080E00E5F1F4FF0CF42FC02C0839478CF38
:101060008394839475CF842D867809F471CFF6CF5D
:10107000B70180E290E00E94740883948214C0F368
:10108000512C73CF522C5818821408F46ECFF8CF1D
:10109000842D867809F47BCF8BE241FE80E247FC09
:1010A0008DE2B70190E071CFB70180E390E00E943C
:1010B00074089A946CCF8FEF9FEF99CFFC01059045
:1010C000615070400110D8F7809590958E0F9F1F4A
:1010D0000895FC016150704001900110D8F780958F
:1010E00090958E0F9F1F08950F931F93CF93DF93BB
:1010F000182F092FEB018B8181FD09C01FEF0FEF26
:10110000812F902FDF91CF911F910F91089582FF32
:1011100014C02E813F818C819D81281739073CF4B2
:10112000E881F981CF0101969983888310838E81AC
:101130009F8101969F838E83E3CFE885F985812F78
:101140000995892BA1F3DACFFA01AA27283051F1AA
:10115000203181F1E8946F936E7F6E5F7F4F8F4FE8
:101160009F4FAF4FB1E03ED0B4E03CD0670F781F47
:10117000891F9A1FA11D680F791F8A1F911DA11D2C
:101180006A0F711D811D911DA11D20D009F4689465
:101190003F912AE0269F11243019305D3193DEF60D
:1011A000CF010895462F4770405D4193B3E00FD0C3
:1011B000C9F7F6CF462F4F70405D4A3318F0495DAE
:1011C00031FD4052419302D0A9F7EACFB4E0A69591
:1011D0009795879577956795BA95C9F700976105B3
:1011E000710508959B01AC010A2E06945795479509
:1011F00037952795BA95C9F7620F731F841F951FFE
:10120000A01D08952F923F924F925F926F927F920E
:101210008F929F92AF92BF92CF92DF92EF92FF9206
:101220000F931F93CF93DF93CDB7DEB7CA1BDB0BB2
:101230000FB6F894DEBF0FBECDBF09942A88398857
:1012400048885F846E847D848C849B84AA84B9845E
:10125000C884DF80EE80FD800C811B81AA81B9816A
:10126000CE0FD11D0FB6F894DEBF0FBECDBFED017E
:061270000895F894FFCF81
:1012760001FFFF0E0F100A0B0C0D303132333435DF
:10128600363738392A230028143C202020202020F5
:101296004F70656E0020202020204C6F636B6564C4
:1012A6000048656C6C6F20576F726C6400506C65FB
:1012B6006173652073656E642063757272656E7402
:1012C6002074696D657374616D700A00456E74658E
:1012D600722070617373776F72643A002020202049
:1012E6002020002A00416C61726D212070657720F4
:1012F60070657721005B253032643A253032643AD6
:10130600253032645D202D20005061737377643A76
:10131600202200220A004B65793A2025630A0052F2
:10132600656365697665643A2025730A0054696DBC
:10133600652073657420746F3A20253032643A252F
:0A1346003032643A253032640A00A8
:00000001FF
