:100000000C9434000C9446000C9446000C9446006A
:100010000C9446000C9446000C9446000C94460048
:100020000C9446000C9446000C9446000C94460038
:100030000C9446000C9446000C9446000C94460028
:100040000C9448000C9446000C9446000C94460016
:100050000C9446000C9446000C9446000C94460008
:100060000C9446000C94460011241FBECFEFD8E03C
:10007000DEBFCDBF21E0A0E0B1E001C01D92A930FC
:10008000B207E1F70E9492000C9493000C940000D8
:100090001F920F920FB60F9211242F933F938F93BD
:1000A0009F93AF93BF938091050190910601A0911A
:1000B0000701B09108013091040123E0230F2D378F
:1000C00058F50196A11DB11D2093040180930501EF
:1000D00090930601A0930701B0930801809100015D
:1000E00090910101A0910201B09103010196A11D1F
:1000F000B11D8093000190930101A0930201B09380
:100100000301BF91AF919F918F913F912F910F90DC
:100110000FBE0F901F90189526E8230F0296A11D81
:0A012000B11DD2CF0895F894FFCF6F
:00000001FF
