:100000000C945D000C9485000C9485000C94850084
:100010000C9485000C9485000C9485000C9485004C
:100020000C9485000C9485000C9485000C9485003C
:100030000C9485000C9485000C9485000C9485002C
:100040000C94FC010C9485000C946C020C944602F8
:100050000C9485000C9485000C9485000C9485000C
:100060000C9485000C9485000000000024002700FB
:100070002A0000000000250028002B0004040404CE
:100080000404040402020202020203030303030342
:10009000010204081020408001020408102001021F
:1000A00004081020000000080002010000030407FB
:1000B0000000000000000000750311241FBECFEFF8
:1000C000D8E0DEBFCDBF11E0A0E0B1E0E4E5F7E0AD
:1000D00002C005900D92A432B107D9F721E0A4E245
:1000E000B1E001C01D92AA3CB207E1F710E0CDE5F6
:1000F000D0E004C02197FE010E94A203CC35D107B5
:10010000C9F70E949E020C94A8030C940000EDEA2B
:10011000F0E08491E9E9F0E09491E5E8F0E0E49121
:10012000EE23B1F0882339F08330E9F090F4813088
:1001300001F1823011F1F0E0EE0FFF1FEE58FF4F9A
:10014000A591B4918FB7F894EC919E2B9C938FBF9F
:1001500008958730A9F08830C9F0843061F7809124
:1001600080008F7D03C0809180008F778093800016
:10017000E2CF84B58F7784BDDECF84B58F7DFBCF92
:100180008091B0008F778093B000D5CF8091B00080
:100190008F7DF9CF3FB7F8948091C6019091C70148
:1001A000A091C801B091C90126B5A89B05C02F3FF9
:1001B00019F00196A11DB11D3FBFBA2FA92F982F8D
:1001C0008827BC01CD01620F711D811D911D42E088
:1001D000660F771F881F991F4A95D1F70895AF9230
:1001E000BF92CF92DF92EF92FF920F931F93CF9324
:1001F000DF936C017B018B01040F151FEB015E0186
:10020000AE18BF08C017D10759F06991D601ED911A
:10021000FC910190F081E02DC6010995892B79F7B9
:10022000C501DF91CF911F910F91FF90EF90DF906B
:10023000CF90BF90AF900895FC01538D448D252F32
:1002400030E0842F90E0821B930B541710F0CF9670
:10025000089501970895FC01918D828D981761F0A2
:10026000A28DAE0FBF2FB11D5D968C91928D9F5FB9
:100270009F73928F90E008958FEF9FEF0895FC0198
:10028000918D828D981731F0828DE80FF11D858D4B
:1002900090E008958FEF9FEF0895FC01918D228DDE
:1002A000892F90E0805C9F4F821B91098F73992763
:1002B000089584E291E00E944D0121E0892B09F428
:1002C00020E0822F089580E090E0892B29F00E94A1
:1002D000590181110C9400000895FC01A48DA80F10
:1002E000B92FB11DA35ABF4F2C91848D90E0019678
:1002F0008F739927848FA689B7892C93A089B18998
:100300008C91837080648C93938D848D981306C038
:100310000288F389E02D80818F7D80830895EF929C
:10032000FF920F931F93CF93DF93EC0181E0888FAF
:100330009B8D8C8D98131AC0E889F989808185FF7F
:1003400015C09FB7F894EE89FF896083E889F98921
:1003500080818370806480839FBF81E090E0DF9123
:10036000CF911F910F91FF90EF900895F62E0B8D76
:1003700010E00F5F1F4F0F731127E02E8C8D8E1131
:100380000CC00FB607FCFACFE889F989808185FF98
:10039000F5CFCE010E946D01F1CFEB8DEC0FFD2F5B
:1003A000F11DE35AFF4FF0829FB7F8940B8FEA8953
:1003B000FB8980818062CFCFCF93DF93EC01888D62
:1003C0008823B9F0AA89BB89E889F9898C9185FDD0
:1003D00003C0808186FD0DC00FB607FCF7CF8C915E
:1003E00085FFF2CF808185FFEDCFCE010E946D01A8
:1003F000E9CFDF91CF9108951F920F920FB60F9220
:1004000011242F933F938F939F93AF93BF9380912A
:10041000C2019091C301A091C401B091C501309176
:10042000C10123E0230F2D3758F50196A11DB11D01
:100430002093C1018093C2019093C301A093C40192
:10044000B093C5018091C6019091C701A091C801E8
:10045000B091C9010196A11DB11D8093C601909371
:10046000C701A093C801B093C901BF91AF919F91FB
:100470008F913F912F910F900FBE0F901F90189565
:1004800026E8230F0296A11DB11DD2CF1F920F9215
:100490000FB60F9211242F933F934F935F936F9357
:1004A0007F938F939F93AF93BF93EF93FF9384E2D8
:1004B00091E00E946D01FF91EF91BF91AF919F91EB
:1004C0008F917F916F915F914F913F912F910F90FD
:1004D0000FBE0F901F9018951F920F920FB60F929C
:1004E00011242F938F939F93EF93FF93E091340107
:1004F000F09135018081E0913A01F0913B0182FD5C
:100500001BC0908180913D018F5F8F7320913E01D0
:10051000821741F0E0913D01F0E0EC5DFE4F958FD8
:1005200080933D01FF91EF919F918F912F910F90BB
:100530000FBE0F901F9018958081F4CF789484B5EA
:10054000826084BD84B5816084BD85B5826085BDCF
:1005500085B5816085BD80916E00816080936E005D
:10056000109281008091810082608093810080914F
:100570008100816080938100809180008160809300
:1005800080008091B10084608093B1008091B000C0
:1005900081608093B00080917A00846080937A00BB
:1005A00080917A00826080937A0080917A008160E5
:1005B00080937A0080917A00806880937A0010920C
:1005C000C100E9E9F0E02491E5E8F0E084918823B6
:1005D00099F090E0880F991FFC01E859FF4FA59111
:1005E000B491FC01EE58FF4F859194918FB7F89428
:1005F000EC91E22BEC938FBF0E948700E0913401D5
:10060000F091350182E08083E0913001F091310179
:100610001082E0913201F09133018FEC80831092CF
:100620003C01E0913801F091390186E08083E0914E
:100630003601F0913701808180618083E09136013D
:10064000F0913701808188608083E0913601F091DC
:100650003701808180688083E0913601F091370115
:1006600080818F7D80834DE050E062E171E084E223
:1006700091E00E94EF0042E050E060E271E084E22D
:1006800091E00E94EF00C0E0D0E00E9487000E944D
:10069000CA004B015C0188EEC82E83E0D82EE12C05
:1006A000F12C0E94CA00681979098A099B09683EE1
:1006B000734081059105A8F321E0C21AD108E10831
:1006C000F10888EE880E83E0981EA11CB11CC114AD
:1006D000D104E104F10429F72097B9F20E945901ED
:1006E000882399F20E940000D0CFE4E2F1E0138267
:1006F000128288EE93E0A0E0B0E084839583A68325
:10070000B78384E091E09183808385EC90E09587C6
:10071000848784EC90E09787868780EC90E0918BCB
:10072000808B81EC90E0938B828B82EC90E0958BB8
:10073000848B86EC90E0978B868B118E128E138EB5
:10074000148E0895EE0FFF1F0590F491E02D09948B
:04075000F894FFCF4B
:10075400000000008F01EF001C01DC014D012B01A2
:100764003F0148656C6C6F2C20776F726C642100BC
:040774000D0A00006A
:00000001FF
