:100000000C945D000C9485000C9485000C94850084
:100010000C9485000C9485000C9485000C9485004C
:100020000C9485000C9485000C9485000C9485003C
:100030000C9485000C9485000C9485000C9485002C
:100040000C94B9010C9485000C9429020C940302C1
:100050000C9485000C9485000C9485000C9485000C
:100060000C9485000C9485000000000024002700FB
:100070002A0000000000250028002B0004040404CE
:100080000404040402020202020203030303030342
:10009000010204081020408001020408102001021F
:1000A00004081020000000080002010000030407FB
:1000B0000000000000000000760311241FBECFEFF7
:1000C000D8E0DEBFCDBF11E0A0E0B1E0E6E5F7E0AB
:1000D00002C005900D92A432B107D9F721E0A4E245
:1000E000B1E001C01D92AA3CB207E1F710E0CDE5F6
:1000F000D0E004C02197FE010E94A303CC35D107B4
:10010000C9F70E945B020C94A9030C9400003FB74E
:10011000F8948091C6019091C701A091C801B09157
:10012000C90126B5A89B05C02F3F19F00196A11D56
:10013000B11D3FBFBA2FA92F982F8827BC01CD0131
:10014000620F711D811D911D42E0660F771F881F90
:10015000991F4A95D1F70895AF92BF92CF92DF923F
:10016000EF92FF920F931F93CF93DF936C017B016C
:100170008B01040F151FEB015E01AE18BF08C017FD
:10018000D10759F06991D601ED91FC910190F08170
:10019000E02DC6010995892B79F7C501DF91CF9133
:1001A0001F910F91FF90EF90DF90CF90BF90AF9095
:1001B0000895FC01538D448D252F30E0842F90E06D
:1001C000821B930B541710F0CF9608950197089552
:1001D000FC01918D828D981761F0A28DAE0FBF2F1B
:1001E000B11D5D968C91928D9F5F9F73928F90E071
:1001F00008958FEF9FEF0895FC01918D828D9817E0
:1002000031F0828DE80FF11D858D90E008958FEF1C
:100210009FEF0895FC01918D228D892F90E0805CE5
:100220009F4F821B91098F739927089584E291E073
:100230000E940A0121E0892B09F420E0822F089511
:1002400080E090E0892B29F00E94160181110C9426
:1002500000000895FC01A48DA80FB92FB11DA35A69
:10026000BF4F2C91848D90E001968F739927848FD6
:10027000A689B7892C93A089B1898C9183708064F9
:100280008C93938D848D981306C00288F389E02D9A
:1002900080818F7D80830895EF92FF920F931F934B
:1002A000CF93DF93EC0181E0888F9B8D8C8D981329
:1002B0001AC0E889F989808185FF15C09FB7F89435
:1002C000EE89FF896083E889F98980818370806481
:1002D00080839FBF81E090E0DF91CF911F910F91CC
:1002E000FF90EF900895F62E0B8D10E00F5F1F4FDB
:1002F0000F731127E02E8C8D8E110CC00FB607FCEA
:10030000FACFE889F989808185FFF5CFCE010E9477
:100310002A01F1CFEB8DEC0FFD2FF11DE35AFF4FBA
:10032000F0829FB7F8940B8FEA89FB898081806205
:10033000CFCFCF93DF93EC01888D8823B9F0AA89C2
:10034000BB89E889F9898C9185FD03C0808186FD90
:100350000DC00FB607FCF7CF8C9185FFF2CF8081DF
:1003600085FFEDCFCE010E942A01E9CFDF91CF9129
:1003700008951F920F920FB60F9211242F933F935F
:100380008F939F93AF93BF938091C2019091C301CC
:10039000A091C401B091C5013091C10123E0230FA8
:1003A0002D3758F50196A11DB11D2093C1018093F1
:1003B000C2019093C301A093C401B093C501809181
:1003C000C6019091C701A091C801B091C9010196E1
:1003D000A11DB11D8093C6019093C701A093C801D0
:1003E000B093C901BF91AF919F918F913F912F9190
:1003F0000F900FBE0F901F90189526E8230F0296BE
:10040000A11DB11DD2CF1F920F920FB60F921124D2
:100410002F933F934F935F936F937F938F939F930C
:10042000AF93BF93EF93FF9384E291E00E942A0180
:10043000FF91EF91BF91AF919F918F917F916F91BC
:100440005F914F913F912F910F900FBE0F901F9092
:1004500018951F920F920FB60F9211242F938F931E
:100460009F93EF93FF93E0913401F09135018081E8
:10047000E0913A01F0913B0182FD1BC09081809197
:100480003D018F5F8F7320913E01821741F0E09113
:100490003D01F0E0EC5DFE4F958F80933D01FF91B3
:1004A000EF919F918F912F910F900FBE0F901F9002
:1004B00018958081F4CF789484B5826084BD84B52A
:1004C000816084BD85B5826085BD85B5816085BD4F
:1004D00080916E00816080936E0010928100809107
:1004E000810082608093810080918100816080938F
:1004F0008100809180008160809380008091B100B4
:1005000084608093B1008091B00081608093B000DE
:1005100080917A00846080937A0080917A00826072
:1005200080937A0080917A00816080937A00809134
:100530007A00806880937A001092C10049E950E007
:10054000FA01649185E890E0FC012491222399F05E
:1005500030E0220F331FF901E859FF4FA591B49104
:10056000F901EE58FF4F259134912FB7F8943C9143
:10057000632B6C932FBFEDEAF0E02491FA014491D4
:10058000FC0194919923D9F0222359F0233009F4E6
:1005900096C008F089C0213009F497C0223009F4D0
:1005A00098C0E92FF0E0EE0FFF1FEE58FF4FA59126
:1005B000B4918FB7F8949C91492B4C938FBFE091E5
:1005C0003401F091350182E08083E0913001F091B7
:1005D00031011082E0913201F09133018FEC808380
:1005E00010923C01E0913801F091390186E080835E
:1005F000E0913601F0913701808180618083E09144
:100600003601F0913701808188608083E091360166
:10061000F0913701808180688083E0913601F0910C
:10062000370180818F7D80834DE050E062E171E091
:1006300084E291E00E94AC0042E050E060E271E0B0
:1006400084E291E00E94AC00C0E0D0E00E9487000C
:100650004B015C0188EEC82E83E0D82EE12CF12CF2
:100660000E948700681979098A099B09683E7340CE
:1006700081059105A8F3F1E0CF1AD108E108F1084E
:1006800028EE820E23E0921EA11CB11CC114D104DD
:10069000E104F10429F72097C9F20E94160188238A
:1006A000A9F20E940000D2CF2730B1F02830D1F05B
:1006B000243009F076CF809180008F7D03C0809137
:1006C00080008F77809380006CCF84B58F7784BD56
:1006D00068CF84B58F7DFBCF8091B0008F778093FA
:1006E000B0005FCF8091B0008F7DF9CFE4E2F1E000
:1006F0001382128288EE93E0A0E0B0E084839583B9
:10070000A683B78384E091E09183808385EC90E0B9
:100710009587848784EC90E09787868780EC90E0CB
:10072000918B808B81EC90E0938B828B82EC90E0BC
:10073000958B848B86EC90E0978B868B118E128E36
:10074000138E148E0895EE0FFF1F0590F491E02D87
:060750000994F894FFCFAC
:10075600000000004C01AC00D90099010A01E80034
:10076600FC0048656C6C6F2C20776F726C642100FE
:040776000D0A000068
:00000001FF
